S00F0000726566725F76312E7372656360
S113000013C037C036C035C034C033C032C031C06D
S113001030C02FC02EC02DC02CC02BC02BC029C077
S113002028C027C026C0EA0311241FBECFE5D4E0B0
S1130030DEBFCDBF10E0A0E6B0E0EEE9F2E102C021
S113004005900D92AC3AB107D9F720E0ACEAB0E0E4
S113005001C01D92A73BB207E1F710E0C4E1D0E074
S113006003C02197FE011BD6C331D107D1F7EBD2D0
S113007014C9C6CF1F920F920FB60F9211248F93FB
S11300809F9384B195B19093B5008093B40081E0BF
S11300908093B60083E08A95F1F700009F918F91D9
S11300A00F900FBE0F901F9018958CB95D9BFECFDB
S11300B00895CF93DF93EC018881882329F021965A
S11300C0F4DF89918111FCCFDF91CF9108950F93D3
S11300D01F93CF93DF93CDB7DEB72A970FB6F8946B
S11300E0DEBF0FBECDBF9F938F937F936F9380E648
S11300F090E09F938F93CE0101969F938F93D5D5D4
S113010089810FB6F894DEBF0FBECDBF882349F0B6
S11301108E010E5F1F4FC9DFF80181918F0181119C
S1130120FACF2A960FB6F894DEBF0FBECDBFDF918B
S1130130CF911F910F9108950F931F93CF93DF9346
S1130140CDB7DEB768970FB6F894DEBF0FBECDBF4C
S1130150AE014B5E5F4F0DD520E030E048EC52E439
S11301603BD520D47F936F936D897E898F89988D39
S113017019D47F936F9387E690E09F938F93CE017A
S113018001969F938F9391D589810FB6F894DEBF22
S11301900FBECDBF882349F08E010E5F1F4F85DF50
S11301A0F80181918F018111FACF68960FB6F89406
S11301B0DEBF0FBECDBFDF91CF911F910F91089588
S11301C04F925F926F927F928F929F92AF92BF9263
S11301D0CF92DF92EF92FF920F931F93CF93DF930F
S11301E07C018B01EA0187B18F7087B987B1807F69
S11301F087B987B187B9369A9091B6009923E1F30C
S11302006091B4007091B5006F3F83E07807C9F046
S113021080E090E0F8D34B015C0120E030E44CE155
S113022056E4DAD42B013C01A501940160E070ECA2
S11302308FE794E4E6D29B01AC01C301B2014AD337
S113024003C060E070E0CB016093AC007093AD003C
S11302508093AE009093AF001092B600A3D3F70141
S1130260608371838283938387B18F7087B987B1E9
S1130270807F87B9389A369A8091B6008823E1F353
S11302806091B4007091B5006F3FF3E07F07C9F04F
S113029080E090E0B8D36B017C0120E030E44CE1D5
S11302A056E49AD44B015C01A701960160E070EC1E
S11302B08FE794E4A6D29B01AC01C501B4010AD333
S11302C003C060E070E0CB016093AC007093AD00BC
S11302D08093AE009093AF001092B60063D3F80100
S11302E0608371838283938387B18F7087B987B169
S11302F0807F87B9399A369A8091B6008823E1F3D2
S11303006091B4007091B5006F3FF3E07F07C9F0CE
S113031080E090E078D36B017C0120E030E44CE194
S113032056E45AD44B015C01A701960160E070ECDD
S11303308FE794E466D29B01AC01C501B401CAD233
S113034003C060E070E0CB016093AC007093AD003B
S11303508093AE009093AF001092B60023D36883CD
S113036079838A839B83DF91CF911F910F91FF90B3
S1130370EF90DF90CF90BF90AF909F908F907F9041
S11303806F905F904F9008958F929F92AF92BF921B
S1130390CF92DF92EF92FF9287B18F7087B987B1C6
S11303A0807F87B987B187B9369A8091B600882350
S11303B0E1F36091B4007091B5006F3F83E078077A
S11303C0B9F180E090E01FD36B017C0120E030E4C0
S11303D04CE156E401D44B015C01A701960160E0B5
S11303E070EC8FE794E40DD29B01AC01C501B4011C
S11303F071D26B017C016093AC007093AD0080936B
S1130400AE009093AF001092B60020E030EC4AEDBD
S113041056E4ABD3181654F020E034EF45EC56E420
S1130420C701B60153D2880F880B10C081E00EC0FB
S11304301092AC001092AD001092AE001092AF007A
S11304401092B600C12CD12C7601E6CFFF90EF902C
S1130450DF90CF90BF90AF909F908F9008958F9230
S11304609F92AF92BF92CF92DF92EF92FF9287B1A9
S11304708F7087B987B1807F87B9399A369A80910E
S1130480B6008823E1F36091B4007091B5006F3F2A
S113049083E07807C9F080E090E0B5D26B017C017D
S11304A020E030E44CE156E497D34B015C01A70112
S11304B0960160E070EC8FE794E4A3D19B01AC015A
S11304C0C501B40107D203C060E070E0CB016093C2
S11304D0AC007093AD008093AE009093AF00109287
S11304E0B60020E030E44BE956E4F0D1881F8827B9
S11304F0881FFF90EF90DF90CF90BF90AF909F90B8
S11305008F9008958A9A929A08958A9A9298089553
S11305104F925F926F927F928F929F92AF92BF920F
S1130520DF92EF92FF920F931F93CF93DF93EADF53
S113053010E0D12CE12CF12C00E0CCEAD0E04AC050
S11305401F3F09F01F5F2FEF8AE197EB2150804096
S11305509040E1F700C0000087B18F7087B987B180
S1130560807F87B987B187B9369A9091B60099236D
S1130570E1F36091B4007091B5006F3F23E072071E
S1130580D9F080E090E03FD24B015C0120E030E400
S11305904CE156E421D32B013C01A501940160E018
S11305A070EC8FE794E42DD19B01AC01C301B2013F
S11305B091D1362F272F04C03D2D2E2D8F2D902F16
S11305C0432F522F682F792F488359836A837B8363
S11305D01092B600D9DE813009F0B2CF153008F49C
S11305E0AFCF93DF812FDF91CF911F910F91FF90B8
S11305F0EF90DF90BF90AF909F908F907F906F901F
S11306005F904F9008958B9A939A08958B9A93983C
S11306100895CF93DF93F7DFC0E0D0E02FEF8AE1B6
S113062097EB215080409040E1F700C0000017DFB5
S1130630811104C02196C431D10581F7E7DF80E040
S1130640DF91CF910895CF93DF93CDB7DEB72C9789
S11306500FB6F894DEBF0FBECDBF789456DFD6DF59
S1130660539A83E389B980E790E023DD87B1807FE3
S113067087B9389A86B1876086B9339A379A369A99
S113068087B18F7087B987B1807F87B987B187B900
S1130690369A8091B6008823E1F36091B40070919A
S11306A0B5006F3F23E07207C9F080E090E0ABD162
S11306B06B017C0120E030E44CE156E48DD24B0127
S11306C05C01A701960160E070EC8FE794E499D097
S11306D09B01AC01C501B401FDD003C060E070E032
S11306E0CB016093AC007093AD008093AE00909307
S11306F0AF001092B600AE014F5F5F4FBE016B5F5B
S11307007F4FCE0109965CDD88E890E0D2DC6985F4
S11307107A858B859C85DBDC84E990E0CADC6D817D
S11307207E818F819885D3DC80EA90E0C2DC698188
S11307307A818B819C81CBDC80E090E045D58F3F32
S113074051F440E050E0BA0180E090E04AD5C12C79
S1130750D12C760105C080E090E03ED56B017C0190
S1130760C701B601E9DC10DE8F3FB9F4D1DE682F92
S113077070E080E090E049D120E030E040E752E4CE
S1130780A9D09B01AC01C701B6013CD06B017C012F
S1130790AB01BC0180E090E024D520E030E040E0F3
S11307A051E4C701B601E1D1181654F432DF40E038
S11307B050E0BA0180E090E014D5C12CD12C760130
S11307C08FE39DE023E0815090402040E1F700C09A
S11307D00000C6CF80E094E09093B5008093B4000D
S11307E01092B600ECEAF0E080E090E0A0E8BFE709
S11307F080839183A283B38384839583A683B78301
S113080008955058BB27AA270ED075C166D130F081
S11308106BD120F031F49F3F11F41EF45BC10EF450
S1130820E095E7FB51C1E92F77D180F3BA1762074E
S113083073078407950718F071F49EF58FC10EF4C1
S1130840E0950B2EBA2FA02D0B01B90190010C01DC
S1130850CA01A0011124FF27591B99F0593F50F4F4
S1130860503E68F11A16F040A22F232F342F44274C
S1130870585FF3CF469537952795A795F040539544
S1130880C9F77EF41F16BA0B620B730B840BBAF014
S11308909150A1F0FF0FBB1F661F771F881FC2F77F
S11308A00EC0BA0F621F731F841F48F48795779593
S11308B06795B795F7959E3F08F0B3CF9395880F4A
S11308C008F09927EE0F979587950895D9D008F4E5
S11308D081E008950CD00FC107D140F0FED030F074
S11308E021F45F3F19F0F0C0511139C1F3C014D1A4
S11308F098F39923C9F35523B1F3951B550BBB27E3
S1130900AA2762177307840738F09F5F5F4F220F8F
S1130910331F441FAA1FA9F333D00E2E3AF0E0E888
S113092030D091505040E695001CCAF729D0FE2FD4
S113093027D0660F771F881FBB1F26173707480766
S1130940AB07B0E809F0BB0B802DBF01FF2793581C
S11309505F4F2AF09E3F510568F0B6C000C15F3F6B
S1130960ECF3983EDCF3869577956795B795F79504
S11309709F5FC9F7880F911D9695879597F90895FC
S1130980E1E0660F771F881FBB1F62177307840798
S1130990BA0720F0621B730B840BBA0BEE1F88F7A7
S11309A0E095089504D06894B111D9C00895BCD0DD
S11309B088F09F5790F0B92F9927B751A0F0D1F044
S11309C0660F771F881F991F1AF0BA95C9F712C0CE
S11309D0B13081F0C3D0B1E00895C0C0672F782F43
S11309E08827B85F39F0B93FCCF38695779567953A
S11309F0B395D9F73EF490958095709561957F4FA6
S1130A008F4F9F4F0895E89409C097FB3EF490954B
S1130A108095709561957F4F8F4F9F4F9923A9F0D3
S1130A20F92F96E9BB279395F69587957795679562
S1130A30B795F111F8CFFAF4BB0F11F460FF1BC0A6
S1130A406F5F7F4F8F4F9F4F16C0882311F096E939
S1130A5011C0772321F09EE8872F762F05C06623E7
S1130A6071F096E8862F70E060E02AF09A95660FA0
S1130A70771F881FDAF7880F9695879597F9089559
S1130A80990F0008550FAA0BE0E8FEEF161617069B
S1130A90E807F907C0F012161306E407F50798F003
S1130AA0621B730B840B950B39F40A2661F0232B1C
S1130AB0242B252B21F408950A2609F4A140A69598
S1130AC08FEF811D811D089597F99F6780E870E07D
S1130AD060E008959FEF80EC089500240A941616B0
S1130AE0170618060906089500240A941216130618
S1130AF0140605060895092E0394000C11F48823A6
S1130B0052F0BB0F40F4BF2B11F460FF04C06F5FC1
S1130B107F4F8F4F9F4F089557FD9058440F551F97
S1130B2059F05F3F71F04795880F97FB991F61F06B
S1130B309F3F79F087950895121613061406551FE2
S1130B40F2CF4695F1DF08C0161617061806991F4E
S1130B50F1CF86957105610508940895E894BB2743
S1130B6066277727CB0197F908958ADF08F48FEF7A
S1130B700895FA01DC01AA0FBB1F9B01AC01BF570A
S1130B8028F422273327442750781FC0B75188F40C
S1130B90AB2F0024469537952795011CA395D2F3D6
S1130BA0002069F0220F331F441FB395DAF30DD0F0
S1130BB028CE61307105A0E88A07B94630F49B015C
S1130BC0AC016627772788279078309621F0208318
S1130BD031834283538308950BD08DCF7EDF28F079
S1130BE083DF18F0952309F06FCF74CF1124B7CFAA
S1130BF093DFA0F3959FD1F3950F50E0551F629FAB
S1130C00F001729FBB27F00DB11D639FAA27F00D61
S1130C10B11DAA1F649F6627B00DA11D661F829F88
S1130C202227B00DA11D621F739FB00DA11D621F6D
S1130C30839FA00D611D221F749F3327A00D611D8A
S1130C40231F849F600D211D822F762F6A2F11246C
S1130C509F5750408AF0E1F088234AF0EE0FFF1FBF
S1130C60BB1F661F771F881F91505040A9F79E3FF6
S1130C70510570F029CF73CF5F3FECF3983EDCF35E
S1130C80869577956795B795F795E7959F5FC1F733
S1130C90FE2B880F911D9695879597F90895EE0F71
S1130CA0FF1F0590F491E02D0994AEE0B0E0EAE571
S1130CB0F6E0CAC20D891E8986E08C831A830983F3
S1130CC08FEF9FE79E838D83AE01475E5F4F6F89F1
S1130CD0788DCE01019609D02F813885F801E20F75
S1130CE0F31F10822E96E4E0CBC2ACE0B0E0EAE75A
S1130CF0F6E09CC27C016B018A01FC01178216821A
S1130D00838181FFB0C1CE0101964C01F70193812B
S1130D10F60193FD859193FF81916F01882309F476
S1130D209EC1853239F493FD859193FF81916F01C2
S1130D30853221F4B70190E0B1D1E8CF512C312CA8
S1130D4020E02032A0F48B3269F030F4803259F084
S1130D50833269F420612CC08D3239F0803339F448
S1130D60216026C02260246023C0286021C027FDA2
S1130D7027C030ED380F3A3078F426FF06C0FAE089
S1130D805F9E300D1124532E13C08AE0389E300D1F
S1130D901124332E20620CC08E3221F426FD5FC153
S1130DA0206406C08C3611F4206802C0883641F4F1
S1130DB0F60193FD859193FF81916F018111C1CF5C
S1130DC0982F9F7D9554933028F40C5F1F4FFFE3B9
S1130DD0F9830DC0833631F0833771F0833509F020
S1130DE057C021C0F801808189830E5F1F4F4424BE
S1130DF04394512C540114C03801F2E06F0E711C5D
S1130E00F801A080B18026FF03C0652D70E002C008
S1130E106FEF7FEFC5012C8736D12C0183012C8520
S1130E202F77222E16C03801F2E06F0E711CF801E4
S1130E30A080B18026FF03C0652D70E002C06FEF73
S1130E407FEFC5012C8714D12C012C852068222E1C
S1130E50830123FC19C0832D90E048165906A0F4A1
S1130E60B70180E290E01AD13A94F5CFF50127FC5E
S1130E70859127FE81915F01B70190E00FD1311078
S1130E803A94F1E04F1A51084114510479F7DEC045
S1130E90843611F0893631F5F80127FF07C06081E7
S1130EA07181828193810C5F1F4F08C060817181C1
S1130EB0072E000C880B990B0E5F1F4F2F76722E96
S1130EC097FF09C090958095709561957F4F8F4FDE
S1130ED09F4F2068722E2AE030E0A40117D1A82E7B
S1130EE0A81843C0853729F42F7EB22E2AE030E0BB
S1130EF025C0F22FF97FBF2E8F36C1F018F4883544
S1130F0079F0ADC0803719F0883721F0A8C02F2FB1
S1130F102061B22EB4FE0DC08B2D8460B82E09C0A2
S1130F2024FF0AC09F2F9660B92E06C028E030E047
S1130F3005C020E130E002C020E132E0F801B7FE54
S1130F4007C060817181828193810C5F1F4F06C04D
S1130F506081718180E090E00E5F1F4FA401D6D0C4
S1130F60A82EA818FB2DFF777F2E76FE0BC0372DF9
S1130F703E7FA51450F474FE0AC072FC08C0372DDD
S1130F803E7E05C0BA2C372D03C0BA2C01C0B52C47
S1130F9034FF0DC0FE01EA0DF11D8081803311F490
S1130FA0397E09C032FF06C0B394B39404C0832FC2
S1130FB0867809F0B39433FD12C030FF06C05A2C72
S1130FC0B31418F4530C5B18B32CB31460F4B701C6
S1130FD080E290E03C8762D0B3943C85F6CFB314B2
S1130FE010F43B1801C0312C34FF11C0B70180E369
S1130FF090E03C8753D03C8532FF16C031FD03C0DE
S113100088E790E002C088E590E0B7010CC0832F28
S1131010867851F031FF02C08BE201C080E237FDD7
S11310208DE2B70190E03AD0A51430F4B70180E323
S113103090E034D05A94F8CFAA94F401EA0DF11D4B
S11310408081B70190E02AD0A110F6CF332009F4B3
S11310505DCEB70180E290E021D03A94F7CFF7015A
S11310608681978102C08FEF9FEF2C96E2E1FAC050
S1131070FC010590615070400110D8F7809590955F
S11310808E0F9F1F0895FC01615070400190011064
S1131090D8F7809590958E0F9F1F08950F931F93F7
S11310A0CF93DF93FB01238121FD03C08FEF9FEFDB
S11310B028C022FF16C046815781248135814217FA
S11310C0530744F4A081B1819D012F5F3F4F3183C9
S11310D020838C93268137812F5F3F4F378326836C
S11310E010C0EB01092F182F0084F185E02D09951C
S11310F0892BE1F68E819F8101969F838E83812FB8
S1131100902FDF91CF911F910F910895FA01AA2793
S1131110283051F1203181F1E8946F936E7F6E5F36
S11311207F4F8F4F9F4FAF4FB1E03ED0B4E03CD0E4
S1131130670F781F891F9A1FA11D680F791F8A1FC7
S1131140911DA11D6A0F711D811D911DA11D20D02E
S113115009F468943F912AE0269F11243019305DE8
S11311603193DEF6CF010895462F4770405D4193D9
S1131170B3E00FD0C9F7F6CF462F4F70405D4A3326
S113118018F0495D31FD4052419302D0A9F7EACFEE
S1131190B4E0A6959795879577956795BA95C9F71D
S11311A000976105710508959B01AC010A2E069410
S11311B05795479537952795BA95C9F7620F731FC9
S11311C0841F951FA01D0895E199FECF9FBB8EBB80
S11311D0E09A99278DB30895A6E1B0E044E050E089
S11311E00AC0242F17D0252F15D000C012D0272FC6
S11311F011C0DC01CB01FC01E199FECF06C0FFBBAD
S1131200EEBBE09A31960DB20D9241505040B8F7C2
S11312100895262FE199FECF9FBB8EBB2DBB0FB641
S1131220F894E29AE19A0FBE019608952F923F92A4
S11312304F925F926F927F928F929F92AF92BF92E2
S1131240CF92DF92EF92FF920F931F93CF93DF938E
S1131250CDB7DEB7CA1BDB0B0FB6F894DEBF0FBEEB
S1131260CDBF09942A88398848885F846E847D8438
S11312708C849B84AA84B984C884DF80EE80FD803A
S11312800C811B81AA81B981CE0FD11D0FB6F894B0
S1111290DEBF0FBECDBFED010895F894FFCF71
S113129E256C64200D0A0025642C2564200D0A009B
S11312AE5374617274696E6720612070726F677215
S11312BE616D2E2E2E0D0A00436F6F6C696E673AA8
S11312CE20202000467265657A65723A202020003F
S10F12DE5661706F72697365723A2000EB
S9030000FC
